:020000040000FA
:10000000587400208D010000950100009701000048
:10001000990100009B0100009D010000000000000C
:100020000000000000000000000000009F01000030
:10003000A1010000000000005D010000930200002B
:10004000A7010000A7010000A7010000A701000010
:10005000A7010000A7010000A7010000A701000000
:10006000A7010000A7010000A7010000A7010000F0
:10007000A7010000A7010000A7010000A7010000E0
:10008000A7010000A7010000A7010000A7010000D0
:100090000000000000000000000000000000000060
:1000A0000000000000000000000000000000000050
:1000B000A701000000000000A7010000A701000048
:1000C00000F002F800F03AF80AA090E8000C824430
:1000D0008344AAF10107DA4501D100F02FF8AFF20D
:1000E000090EBAE80F0013F0010F18BFFB1A43F016
:1000F00001031847240D0000440D0000103A24BFEE
:1001000078C878C1FAD8520724BF30C830C144BF7C
:1001100004680C60704700000023002400250026BE
:10012000103A28BF78C1FBD8520728BF30C148BF5A
:100130000B6070471FB51FBD10B510BD00F070F803
:100140001146FFF7F7FF00F013F900F08EF803B443
:10015000FFF7F2FF03BC00F095F80000EFF3098011
:1001600020B120E9F00F07490968086005480649F1
:100170000A6802601068B0E8F00F80F309884EF05A
:10018000040E70470000002004000020094880474A
:1001900009480047FEE7FEE7FEE7FEE7FEE7FEE769
:1001A000FEE7FEE7FEE7FEE704480549054A064B81
:1001B000704700009D020000C1000000586400204C
:1001C0005874002058700020587000204FF0000232
:1001D00000B5134694469646203922BFA0E80C503D
:1001E000A0E80C50B1F12001BFF4F7AF090728BF18
:1001F000A0E80C5048BF0CC05DF804EB890028BF94
:1002000040F8042B08BF704748BF20F8022B11F0BC
:10021000804F18BF00F8012B704770477047704738
:10022000754600F02BF8AE4605006946534620F0AF
:100230000700854618B020B5FFF7B6FFBDE820409F
:100240004FF000064FF000074FF000084FF0000B92
:1002500021F00701AC46ACE8C009ACE8C009ACE845
:10026000C009ACE8C0098D46704710B50446AFF32D
:1002700000802046BDE81040FFF769BF0048704786
:10028000F463002001491820ABBEFEE726000200FF
:10029000704710B500F0CEFB10BD000003480449C4
:1002A000086004480449086070470000000000002E
:1002B00008ED00E0001BB7003C00002010B51A4814
:1002C000006830B90120184908600020174908600B
:1002D00010BD16480068642809D115480068154902
:1002E000086000201249086000F034FB1AE00F4853
:1002F00000686421B0FBF1F201FB120090B90C48D8
:1003000000680C490968B0FBF1F0C0F101006421FC
:1003100000FB01F4204600F0EBFC074908600020D8
:100320000349086000BFD3E7240000201C00002020
:1003300014000020180000202000002000BF024808
:1003400000680028FBD070472400002000200449EA
:10035000086004490860044908600449086070475F
:10036000240000201400002020000020180000209D
:100370001CB500F007FB00F00FFA00F01BFC00F0CA
:10038000DBFBFFF7E3FF4FF4806008491F230022E7
:10039000CDE900100649074800F026FA00F010FAEF
:1003A0000549086000F08EFA00201CBD1C020020E8
:1003B000B90C0000CC0100200400002001238B4078
:1003C00002689A430260704700B50146087818B188
:1003D0000878134A105C00BD088800F47F4030B1F3
:1003E0000888C0F307200E4A105C0830F3E708685D
:1003F00000F47F0030B10868C0F30740084A105C81
:100400001030E8E7086800F07F4028B10868000E67
:10041000034A105C1830DEE700F007F8DBE7000065
:10042000160D000000210160704720207047012355
:100430008B4002681A430260704770B504460D464F
:100440002570201D00F0E3F870BD2DE9F041044651
:100450000D46164600F0A8F90746E16B081D04F1A9
:10046000200100F0D9F80020E06325646664E069AB
:1004700020F47F00E061384600F09CF9BDE8F0818F
:100480002DE9F04705460C4616461F46DDF820804C
:1004900000F08AF98146E06940EA0740E061E563DF
:1004A000266400206064204600F09EFA04F12001DA
:1004B000281D00F099F8B8F1000F03D041462046FE
:1004C00000F01CFB484600F075F9BDE8F08770B5F8
:1004D0000446002500F068F90646201D00F08EF85D
:1004E0000546304600F066F9284670BD2DE9F04714
:1004F00005460E461746002400F056F98146281D91
:1005000000F094F8B0F1000811D0A8F12004002008
:10051000E06326646764E06920F47F00E061E068DE
:1005200010B1204600F0FAFA204600F047FA48469B
:1005300000F040F92046BDE8F08700001CB54FF4FC
:100540008050174900234FF01132CDE900101549B2
:10055000154800F049F94FF48050144901234FF039
:100560002232CDE900101249124800F03DF94FF453
:100570008050114901234FF03332CDE900100F496B
:100580000F4800F031F94FF480500E4901234FF02D
:100590004432CDE900100C490C4800F025F91CBD8F
:1005A0005C130020390C00001C1200205C2300208A
:1005B000590C00006C1200205C330020790C000004
:1005C000BC1200205C430020990C00000C1300209A
:1005D00042684A60426812680A604268116041607D
:1005E0008268521C82607047486002680A60026834
:1005F000516001608268521C8260704701468868C1
:100600007047014600208A6802B148687047406020
:100610000060002181607047D1E900231A60D1E9B0
:1006200000325A608268521E826070470146002084
:100630008A683AB148684268116042684A608A68CC
:10064000521E8A60704700604060704770B5044673
:100650000E46154601212046FFF7EFFE65610DB9F4
:10066000266105E0AE4201D2304600E02846206116
:1006700070BD000070B5044600F096F806462046AE
:10068000FFF725FF88B1002211462046FFF72EFF15
:1006900005460D49286909680969884204D230462F
:1006A00000F088F800F01CF90AE02069401C206185
:1006B000606928B1D4E90401884201D960692061E8
:1006C000304600F077F870BD00000020F8B5044611
:1006D0000D4600F069F80646206938B12069401ED1
:1006E0002061304600F066F80020F8BD01230022AA
:1006F0000748009501682046FFF7C2FE304600F02B
:1007000059F800F0EDF802480068406CEDE7000091
:100710000000002030B502461148006850434FF4F5
:100720007A71B0FBF1F0401E4FF0E02148614817AC
:100730000721002804DB4B071C0E0A4B1C5406E063
:100740004B071D0E084B00F00F04241F1D5500BF62
:1007500000204FF0E02188610720086130BD0000D3
:100760003C00002000E400E018ED00E070B5044615
:1007700000F01AF8054621460648006800F0BEF968
:100780000448006800F030F9284600F013F800F043
:10079000A7F870BD0000002010B50248FFF737FF32
:1007A00010BD0000C001002000BFEFF3108108461B
:1007B00072B6704700BF80F3108800BF704700001A
:1007C00070B50748FFF700FE044604EB4401054AF4
:1007D00002EB8100FFF715FF0546A5F1200070BD73
:1007E0000C000020400000202DE9F0470546884617
:1007F00091469A46DDE908676E60AF60394630463B
:10080000FFF7E4FCB80806EB80044FF08071201F6E
:1008100004460160201F0446C0F800801421201FF8
:10082000044601601221201F044601600321201F9D
:10083000044601600221201F044601600121201F9F
:1008400004460160201F0446C0F800901121201FBB
:10085000044601601021201F044601600921201F69
:10086000044601600821201F044601600721201F63
:10087000044601600621201F044601600521201F57
:10088000044601600421201F044601602C60002002
:10089000E860C5F810A0E8610A20A8620020E862BC
:1008A0002863686385F8380005F11400FFF7CBFE74
:1008B00005F12000FFF7C7FE284600F07FF8BDE8ED
:1008C000F0870000002080F3098800BFFF20034963
:1008D0000870C80601491E390860704722ED00E023
:1008E00070B5FFF761FF05460B480078002803DD6F
:1008F0002846FFF75FFF70BDFFF762FF0446074819
:100900000068844203D00648046000F08BF8284653
:10091000FFF750FF00BFEEE71000002000000020AE
:100920000400002010B5FFF73FFF04460748007899
:10093000FF2804DA05480078401C04490870044880
:10094000FFF770FD2046FFF735FF10BD10000020B7
:100950000C00002010B5FFF727FF04460848007878
:10096000002808DD06480078401EC0B2044908701F
:1009700008B9FFF7B5FF2046FFF71CFF10BD0000C8
:100980001000002070B5FFF70FFF05460020094951
:100990000870002407E004EB4401074A02EB8100E1
:1009A000FFF735FE641C202CF5DB2846FFF702FF1D
:1009B00070BD0000100000204000002010B504466B
:1009C000216901EB4101064A02EB810004F120019B
:1009D000FFF7FEFD03482169FFF729FD10BD000068
:1009E000400000200C00002010B50446216901EBF6
:1009F00041010A4A02EB810004F12001FFF70CFEDD
:100A0000216901EB4101054A02EB8100FFF7F6FD88
:100A100018B903482169FFF7D1FC10BD4000002040
:100A20000C0000204FF08050014908607047000022
:100A300004ED00E070B5FFF7B7FE06462B484568A9
:100A400013E0A5F11404E068401EE06060B9E06BBB
:100A500020B1012200212046FFF7F7FC204600F0DC
:100A60005DF82046FFF7AAFF6D6820488542E8D16F
:100A70001F480068806A401E1D490968886228BBBB
:100A80001B490968096901EB41011A4A02EB81001F
:100A9000FFF7B4FDD0B116490968096901EB4101BE
:100AA000144A02EB8100FFF7C1FD11490968096989
:100AB00001EB41010F4A02EB81000D490968203129
:100AC000FFF792FD0A200A49096888620A4800680F
:100AD000401C09490860FFF7F1FB3046FFF76AFE4A
:100AE00000F082F8FFF7FCFE70BD0000C00100209E
:100AF00000000020400000201C00002070B50446CB
:100B00000D46E56004F114010348FFF76DFDE0694F
:100B100040F00400E06170BDC001002010B5044643
:100B200004F114010348FFF777FDE06920F00400A9
:100B3000E06110BDC001002000200149086070473D
:100B40001C00002070B505466E681CE03446206924
:100B500018B12069401E2061A0B9022084F820004D
:100B6000D4E905108847012084F82000E06810B11E
:100B7000E068206106E021462846FFF74DFD03208E
:100B800084F820007668AE42E0D170BD1CB54FF409
:100B90008060054901230022CDE900100349044883
:100BA000FFF722FE1CBD0000F45300200D0C0000D6
:100BB000A453002010B50848FFF729FD0748FFF7A8
:100BC00026FD012211460648FFF740FD002211468E
:100BD0000448FFF73BFD10BD5C5300206853002024
:100BE000745300208C53002010B5FFF7DDFD044640
:100BF0000448FFF7A7FF2046FFF7DCFD0248FFF798
:100C000039FD10BD5C5300208C53002000BF002133
:100C10000648FFF75BFD00210548FFF757FD054833
:100C2000FFF790FF0248FFF725FDF0E78C53002007
:100C3000745300206853002000BF0120054908605C
:100C4000FFF794FD0020034908600120FFF78EFDA7
:100C5000F3E700002800002000BF012005490860DC
:100C6000FFF784FD0020034908600120FFF77EFDA7
:100C7000F3E700003000002000BF012005490860B4
:100C8000FFF774FD0020034908600120FFF76EFDA7
:100C9000F3E700003400002000BF01200549086090
:100CA000FFF764FD0020034908600120FFF75EFDA7
:100CB000F3E7000038000020FFF734FEFFF73EFCAA
:100CC000FFF764FF0A20FFF725FDFFF737FB0BE076
:100CD000FFF76AFD044605480068401C03490860A8
:100CE0002046FFF767FD00BFF2E700001400002078
:100CF000B0FA80F310FA03F2C3F19D030AD0D905CC
:100D000001EB1220530638BF704700F1010008BF05
:100D100020F001007047FF00010002000100030005
:100D200001000200010004000100020001000300B4
:100D300001000200010005000100020001000300A3
:100D40000100020001000400010002000100030094
:100D50000100020001000600010002000100030082
:100D60000100020001000400010002000100030074
:100D70000100020001000500010002000100030063
:100D80000100020001000400010002000100030054
:100D90000100020001000700010002000100030041
:100DA0000100020001000400010002000100030034
:100DB0000100020001000500010002000100030023
:100DC0000100020001000400010002000100030014
:100DD0000100020001000600010002000100030002
:100DE00001000200010004000100020001000300F4
:100DF00001000200010005000100020001000300E3
:100E000001000200010004000100020001000300D3
:100E10000100020001000000380E00000000002068
:100E200040000000FC000000780E000040000020A0
:100E3000187400001801000000000000000000000D
:100E400000000000000000000000000000000000A2
:100E50000000000000000000000000000000000092
:100E60000000000000000000000000000000000082
:080E700000000000001BB700A8
:04000005000000C136
:00000001FF
