:020000040000FA
:10000000A85200208D01000095010000970100001A
:10001000990100009B0100009D010000000000000C
:100020000000000000000000000000009F01000030
:10003000A1010000000000005D010000530200006B
:10004000A7010000A7010000A7010000A701000010
:10005000A7010000A7010000A7010000A701000000
:10006000A7010000A7010000A7010000A7010000F0
:10007000A7010000A7010000A7010000A7010000E0
:10008000A7010000A7010000A7010000A7010000D0
:100090000000000000000000000000000000000060
:1000A0000000000000000000000000000000000050
:1000B000A701000000000000A7010000A701000048
:1000C00000F002F800F03AF80AA090E8000C824430
:1000D0008344AAF10107DA4501D100F02FF8AFF20D
:1000E000090EBAE80F0013F0010F18BFFB1A43F016
:1000F000010318471408000034080000103A24BF18
:1001000078C878C1FAD8520724BF30C830C144BF7C
:1001100004680C60704700000023002400250026BE
:10012000103A28BF78C1FBD8520728BF30C148BF5A
:100130000B6070471FB51FBD10B510BD00F049F82A
:100140001146FFF7F7FF00F099F800F067F803B4E5
:10015000FFF7F2FF03BC00F06FF80000EFF3098037
:1001600020B120E9F00F07490968086005480649F1
:100170000A6802601068B0E8F00F80F309884EF05A
:10018000040E70470000002004000020094880474A
:1001900009480047FEE7FEE7FEE7FEE7FEE7FEE769
:1001A000FEE7FEE7FEE7FEE704480549054A064B81
:1001B000704700005D020000C1000000A84200205E
:1001C000A8520020A84E0020A84E0020704770477B
:1001D0007047754600F02CF8AE4605006946534658
:1001E00020F00700854618B020B5FFF7DDFFBDE819
:1001F00020404FF000064FF000074FF000084FF08E
:10020000000B21F00701AC46ACE8C009ACE8C0091E
:10021000ACE8C009ACE8C0098D46704710B504468B
:10022000AFF300802046BDE81040FFF790BF00000C
:10023000004870474842002001491820ABBEFEE745
:10024000260002007047FF2000BF411E081EFCDC94
:10025000704710B500F038FA10BD0000034804499B
:10026000086004480449086070470000000000006E
:1002700008ED00E0001BB7002800002008B500F0E2
:10028000A9F900F007F9174800234FF01132164979
:100290000090164800F026F9154801234FF022324D
:1002A00014490090144800F01DF9144801234FF040
:1002B000333213490090134800F014F912481F23F9
:1002C000002212490090124800F00CF91048114920
:1002D000086000F0F3F81049086000F06DF90020A4
:1002E00008BD000024120020A9070000B80100206A
:1002F00024220020CD070000DC0100202432002051
:10030000E907000000020020484200200508000024
:1003100024320020080000200400002001238B402C
:1003200002689A430260704700B50146087818B128
:100330000878134A105C00BD088800F47F4030B193
:100340000888C0F307200E4A105C0830F3E70868FD
:1003500000F47F0030B10868C0F30740084A105C21
:100360001030E8E7086800F07F4028B10868000E08
:10037000034A105C1830DEE700F004F8DBE7000009
:10038000080800002020704701238B4002681A43B0
:100390000260704742684A60426812680A604268B8
:1003A000116041608268521C826070474860026838
:1003B0000A600268516001608268521C8260704766
:1003C000014688687047014600208A6802B1486883
:1003D000704740600060002181607047D1E90023D0
:1003E0001A60D1E900325A608268521E82607047FA
:1003F000014600208A683AB1486842681160426844
:100400004A608A68521E8A60704700604060704788
:1004100030B502461148006850434FF47A71B0FB82
:10042000F1F0401E4FF0E0214861481707210028F5
:1004300004DB4B071C0E0A4B1C5406E04B071D0E39
:10044000084B00F00F04241F1D5500BF00204FF083
:10045000E02188610720086130BD000028000020ED
:1004600000E400E018ED00E070B5044600F01AF872
:10047000054621460648006800F078F904480068FF
:1004800000F0FCF8284600F013F800F0BFF870BD4B
:100490000000002010B50248FFF79BFF10BD0000D0
:1004A000AC01002000BFEFF31081084672B6704720
:1004B00000BF80F3108800BF7047000070B5074888
:1004C000FFF732FF044604EB4401054A02EB8100CA
:1004D000FFF779FF0546A5F1180070BD0C0000205C
:1004E0002C0000202DE9F04105460F4690461E469F
:1004F000069C4FF08071201F04460160201F0446B7
:1005000007601421201F044601601221201F0446A9
:1005100001600321201F044601600221201F0446C0
:1005200001600121201F04460160201F0446C0F81D
:1005300000801121201F044601601021201F044665
:1005400001600921201F044601600821201F044684
:1005500001600721201F044601600621201F044678
:1005600001600521201F044601600421201F04466C
:1005700001602C6000206860AE60686105F10C00CD
:10058000FFF743FF05F11800FFF73FFF0A2028623D
:1005900006EB4601064A02EB810005F11801FFF760
:1005A000F9FE31460348FFF7EFFEBDE8F081000099
:1005B0002C0000200C000020002080F3098800BFE0
:1005C000FF2003490870C80601491E3908607047BA
:1005D00022ED00E070B5FFF765FF054600200949F0
:1005E0000870002407E004EB4401074A02EB810095
:1005F000FFF7EFFE641C202CF5DB2846FFF758FFC1
:1006000070BD0000100000202C00002070B5FFF726
:1006100049FF05460B480078002803DD2846FFF710
:1006200047FF70BDFFF74AFF044607480068844251
:1006300003D00648046000F03FF82846FFF738FF73
:1006400000BFEEE7100000200000002004000020A2
:1006500010B50446A16801EB4101064A02EB810096
:1006600004F11801FFF796FE0348A168FFF78CFE1E
:1006700010BD00002C0000200C00002010B5044626
:10068000A16801EB41010A4A02EB810004F1180163
:10069000FFF7A4FEA16801EB4101054A02EB8100CE
:1006A000FFF78EFE18B90348A168FFF737FE10BDAB
:1006B0002C0000200C0000204FF080500149086001
:1006C0007047000004ED00E070B5FFF7EBFE064652
:1006D000234844680CE0A4F10C056868401E68607B
:1006E00028B9284600F052F82846FFF7B1FF6468A1
:1006F0001B488442EFD11B480068006A401E19491C
:100700000968086228BB17490968896801EB41013B
:10071000154A02EB8100FFF753FED0B11149096879
:10072000896801EB4101104A02EB8100FFF760FE8E
:100730000C490968896801EB41010B4A02EB810011
:10074000084909681831FFF731FE0A200549096890
:1007500008623046FFF7ACFEFFF758FF70BD00009F
:10076000AC010020000000202C00002070B50446E1
:100770000D46656004F10C010348FFF717FE606940
:1007800040F00200606170BDAC01002010B504466D
:1007900004F10C010348FFF721FE606920F002001C
:1007A000606110BDAC0100200A20FFF731FE0AE0B5
:1007B000012005490860FFF757FE00200249086044
:1007C0000120FFF751FEF3E71800002009E00120A7
:1007D00004490860FFF737FD002002490860FFF771
:1007E00032FDF4E72000002009E001200449086000
:1007F000FFF729FD002002490860FFF724FDF4E718
:100800002400002000BFFEE7FF00010002000100FD
:1008100003000100020001000400010002000100C9
:1008200003000100020001000500010002000100B8
:1008300003000100020001000400010002000100A9
:100840000300010002000100060001000200010097
:100850000300010002000100040001000200010089
:100860000300010002000100050001000200010078
:100870000300010002000100040001000200010069
:100880000300010002000100070001000200010056
:100890000300010002000100040001000200010049
:1008A0000300010002000100050001000200010038
:1008B0000300010002000100040001000200010029
:1008C0000300010002000100060001000200010017
:1008D0000300010002000100040001000200010009
:1008E00003000100020001000500010002000100F8
:1008F00003000100020001000400010002000100E9
:10090000030001000200010028090000000000208F
:100910002C000000FC000000540900002C00002006
:100920007C520000180100000000000000000000E0
:1009300000000000000000000000000000000000B7
:1009400000000000000000000000000000000000A7
:04095000001BB700D1
:04000005000000C136
:00000001FF
