:020000040000FA
:10000000A86300208D010000950100009701000009
:10001000990100009B0100009D010000000000000C
:100020000000000000000000000000009F01000030
:10003000A1010000000000005D0100004702000077
:10004000A7010000A7010000A7010000A701000010
:10005000A7010000A7010000A7010000A701000000
:10006000A7010000A7010000A7010000A7010000F0
:10007000A7010000A7010000A7010000A7010000E0
:10008000A7010000A7010000A7010000A7010000D0
:100090000000000000000000000000000000000060
:1000A0000000000000000000000000000000000050
:1000B000A701000000000000A7010000A701000048
:1000C00000F002F800F03AF80AA090E8000C824430
:1000D0008344AAF10107DA4501D100F02FF8AFF20D
:1000E000090EBAE80F0013F0010F18BFFB1A43F016
:1000F000010318474C0A00006C0A0000103A24BFA4
:1001000078C878C1FAD8520724BF30C830C144BF7C
:1001100004680C60704700000023002400250026BE
:10012000103A28BF78C1FBD8520728BF30C148BF5A
:100130000B6070471FB51FBD10B510BD00F049F82A
:100140001146FFF7F7FF00F093F800F067F803B4EB
:10015000FFF7F2FF03BC00F06FF80000EFF3098037
:1001600020B120E9F00F07490968086005480649F1
:100170000A6802601068B0E8F00F80F309884EF05A
:10018000040E70470000002004000020094880474A
:1001900009480047FEE7FEE7FEE7FEE7FEE7FEE769
:1001A000FEE7FEE7FEE7FEE704480549054A064B81
:1001B0007047000051020000C1000000A853002059
:1001C000A8630020A85F0020A85F00207047704748
:1001D0007047754600F02CF8AE4605006946534658
:1001E00020F00700854618B020B5FFF7DDFFBDE819
:1001F00020404FF000064FF000074FF000084FF08E
:10020000000B21F00701AC46ACE8C009ACE8C0091E
:10021000ACE8C009ACE8C0098D46704710B504468B
:10022000AFF300802046BDE81040FFF790BF00000C
:10023000004870474453002001491820ABBEFEE738
:1002400026000200704710B500F026FB10BD00002C
:1002500003480449086004480449086070470000E6
:100260000000000008ED00E0001BB70024000020A3
:1002700008B500F097FA00F0FDF900F0D9F8094848
:100280001F23002208490090084800F01BFA074885
:100290000749086000F002FA0649086000F074FAA5
:1002A000002008BDF41100203D0A0000B401002028
:1002B000080000200400002001238B4002689A43BC
:1002C0000260704700B50146087818B10878134AF3
:1002D000105C00BD088800F47F4030B10888C0F38E
:1002E00007200E4A105C0830F3E7086800F47F002E
:1002F00030B10868C0F30740084A105C1030E8E7E6
:10030000086800F07F4028B10868000E034A105CBE
:100310001830DEE700F004F8DBE70000400A0000D8
:100320002020704701238B4002681A430260704707
:1003300070B504460D4600202070201D00F0D5F851
:1003400070BD2DE9F04104460D46164600F09AF9BD
:100350000746616B081D04F1180100F0CBF800207E
:100360006063A563E663606920F47F0060613846DE
:1003700000F08EF9BDE8F0812DE9F04705460C4606
:1003800016461F46DDF8208000F07CF98146606942
:10039000384360616563A6630020E063204600F097
:1003A00055FA04F11801281D00F08CF8B8F1000F7F
:1003B00003D04146204600F0C7FA484600F068F9ED
:1003C000BDE8F08770B50446002500F05BF90646ED
:1003D000201D00F081F80546304600F059F9284606
:1003E00070BD2DE9F04705460E461746002400F083
:1003F00049F98146281D00F087F8B0F1000811D0B6
:10040000A8F1180400206063A663E763606920F424
:100410007F006061606810B1204600F0A5FA2046B8
:1004200000F0FEF9484600F033F92046BDE8F087B9
:1004300008B5124800234FF01132114900901148BD
:1004400000F040F9104801234FF022320F4900908C
:100450000F4800F037F90F4801234FF033320E49AF
:1004600000900E4800F02EF90D4801234FF0443261
:100470000C4900900C4800F025F908BDF42200203A
:1004800085090000F4110020F4320020C1090000A9
:1004900034120020F4420020E90900007412002008
:1004A000F45200201D0A0000B412002042684A6085
:1004B000426812680A604268116041608268521C9A
:1004C00082607047486002680A600268516001609B
:1004D0008268521C826070470146886870470146F6
:1004E00000208A6802B148687047406000600021BF
:1004F00081607047D1E900231A60D1E900325A6067
:100500008268521E82607047014600208A683AB1B4
:1005100048684268116042684A608A68521E8A6070
:10052000704700604060704770B504460E4615463F
:1005300001212046FFF7FCFE65610DB9266105E04B
:10054000AE4201D2304600E02846206170BD000076
:1005500070B5044600F096F806462046FFF732FFD5
:1005600088B1002211462046FFF73BFF05460D49A2
:10057000A86809688968884204D2304600F088F883
:1005800000F02CF90AE02069401C2061606928B164
:10059000D4E90401884201D960692061304600F045
:1005A00077F870BD00000020F8B504460D4600F055
:1005B00069F80646206938B12069401E206130463E
:1005C00000F066F80020F8BD0123002207480095DE
:1005D00001682046FFF7D0FE304600F059F800F0E1
:1005E000FDF802480068C06BEDE700000000002045
:1005F00030B502461148006850434FF47A71B0FBA1
:10060000F1F0401E4FF0E021486148170721002813
:1006100004DB4B071C0E0A4B1C5406E04B071D0E57
:10062000084B00F00F04241F1D5500BF00204FF0A1
:10063000E02188610720086130BD0000240000200F
:1006400000E400E018ED00E070B5044600F01AF890
:10065000054621460648006800F076F9044800681F
:1006600000F0F4F8284600F013F800F0B7F870BD79
:100670000000002010B50248FFF737FF10BD000052
:10068000A801002000BFEFF31081084672B6704742
:1006900000BF80F3108800BF7047000070B50748A6
:1006A000FFF710FE044604EB4401054A02EB81000B
:1006B000FFF715FF0546A5F1180070BD0C000020DE
:1006C000280000202DE9F04105460E4617469846C1
:1006D000069C4FF08071201F04460160201F0446D5
:1006E00006601421201F044601601221201F0446C9
:1006F00001600321201F044601600221201F0446DF
:1007000001600121201F04460160201F044607608C
:100710001121201F044601601021201F04460160A2
:100720000921201F044601600821201F04460160A2
:100730000721201F044601600621201F0446016096
:100740000521201F044601600421201F044601608A
:100750002C6000206860C5F8088068610A20286263
:1007600000206862A862E86285F8300005F10C009C
:10077000FFF7D7FE05F11800FFF7D3FE284600F07B
:100780004FF8BDE8F0810000002080F3098800BF29
:10079000FF2003490870C80601491E3908607047E8
:1007A00022ED00E070B5FFF76DFF05460020094916
:1007B0000870002407E004EB4401074A02EB8100C3
:1007C000FFF793FE641C202CF5DB2846FFF760FF43
:1007D00070BD0000100000202800002070B5FFF759
:1007E00051FF05460B480078002803DD2846FFF737
:1007F0004FFF70BDFFF752FF044607480068844270
:1008000006D0064804602846FFF742FF00F03CF897
:1008100000BFEEE7100000200000002004000020D0
:1008200010B50446A16801EB4101064A02EB8100C4
:1008300004F11801FFF73AFE0348A168FFF772FDC3
:1008400010BD0000280000200C00002010B5044658
:10085000A16801EB41010A4A02EB810004F1180191
:10086000FFF748FEA16801EB4101054A02EB810058
:10087000FFF732FE18B90348A168FFF71DFD10BD50
:10088000280000200C0000204FF080500149086033
:100890007047000004ED00E070B5FFF7F3FE064678
:1008A0002648456813E0A5F10C046068401E6060AE
:1008B00060B9606B20B1012200212046FFF741FDA5
:1008C000204600F051F82046FFF7AAFF6D681B484C
:1008D0008542E8D11A480068006A401E1849096834
:1008E000086228BB16490968896801EB4101154A6D
:1008F00002EB8100FFF7F0FDD0B11149096889686A
:1009000001EB41010F4A02EB8100FFF7FDFD0C49AD
:100910000968896801EB41010A4A02EB8100084934
:1009200009681831FFF7CEFD0A20054909680862F9
:100930003046FFF7ADFEFFF751FF70BDA801002064
:10094000000000202800002070B504460D466560B8
:1009500004F10C010348FFF7B5FD606940F00400A5
:10096000606170BDA801002010B5044604F10C01BF
:100970000348FFF7BFFD606920F00400606110BD0F
:10098000A80100200A20FFF733FE0A2200210A48AE
:10099000FFF7CAFD0EE000210748FFF705FE012022
:1009A00006490860FFF750FE002004490860012056
:1009B000FFF74AFEEFE70000145300201400002068
:1009C0000DE0012006490860FFF73EFE00200449C3
:1009D00008600120FFF738FE0248FFF7B9FDF0E795
:1009E0001800002014530020002211460948FFF788
:1009F0009BFD0EE00A210748FFF7D6FD01200649BE
:100A00000860FFF721FE0020034908600120FFF77E
:100A10001BFEEFE72C5300201C0000200AE0012001
:100A200005490860FFF710FE002003490860012017
:100A3000FFF70AFEF3E700002000002000BFFEE7FA
:100A4000FF0001000200010003000100020001009C
:100A50000400010002000100030001000200010087
:100A60000500010002000100030001000200010076
:100A70000400010002000100030001000200010067
:100A80000600010002000100030001000200010055
:100A90000400010002000100030001000200010047
:100AA0000500010002000100030001000200010036
:100AB0000400010002000100030001000200010027
:100AC0000700010002000100030001000200010014
:100AD0000400010002000100030001000200010007
:100AE00005000100020001000300010002000100F6
:100AF00004000100020001000300010002000100E7
:100B000006000100020001000300010002000100D4
:100B100004000100020001000300010002000100C6
:100B200005000100020001000300010002000100B5
:100B300004000100020001000300010002000100A6
:100B4000600B00000000002028000000FC000000F6
:100B5000880B0000280000208063000018010000BE
:100B60000000000000000000000000000000000085
:100B70000000000000000000000000000000000075
:080B800000000000001BB7009B
:04000005000000C136
:00000001FF
